:020000040800F2
:1000000000500020CD300008E12B0008E32B000851
:10001000E52B0008E72B0008E92B00080000000092
:10002000000000000000000000000000EB2B0008B2
:10003000ED2B000800000000EF2B0008F12B00085A
:100040001531000815310008153100081531000878
:100050001531000815310008153100081531000868
:100060001531000815310008153100081531000858
:100070001531000815310008153100081531000848
:10008000F92B0008092C000815310008153100086B
:100090001531000815310008153100081531000828
:1000A0001531000815310008153100081531000818
:1000B000192C000815310008153100081531000809
:1000C00015310008153100081531000815310008F8
:1000D0001531000815310008292C000815310008D9
:1000E0001531000815310008153100080000000026
:1000F0000000000000000000000000000000000000
:0C01000000000000000000005FF808F1A3
:1001100010B5054C237833B9044B13B10448AFF341
:1001200000800123237010BDC009002000000000E2
:1001300088CD000808B5034B1BB103490348AFF352
:10014000008008BD00000000C409002088CD000820
:100150004FF0FF0C1CEAD0521EBF1CEAD15392EAAA
:100160000C0F93EA0C0F6FD01A4480EA010C400286
:1001700018BF5FEA41211ED04FF0006343EA5010E0
:1001800043EA5111A0FB01310CF00040B1F5000F22
:100190003EBF490041EAD3715B0040EA010062F1D1
:1001A0007F02FD2A1DD8B3F1004F40EBC25008BFBB
:1001B00020F00100704790F0000F0CF0004C08BFD9
:1001C00049024CEA502040EA51207F3AC2BFD2F1A6
:1001D000FF0340EAC250704740F400004FF00003B4
:1001E000013A5DDC12F1190FDCBF00F000407047EE
:1001F000C2F10002410021FA02F1C2F1200200FA2C
:1002000002FC5FEA310040F1000053EA4C0308BFF2
:1002100020EADC70704792F0000F00F0004C02BF43
:10022000400010F4000F013AF9D040EA0C0093F0BE
:10023000000F01F0004C02BF490011F4000F013B18
:10024000F9D041EA0C018FE70CEAD15392EA0C0F86
:1002500018BF93EA0C0F0AD030F0004C18BF31F0F1
:10026000004CD8D180EA010000F00040704790F0C7
:10027000000F17BF90F0004F084691F0000F91F06B
:10028000004F14D092EA0C0F01D142020FD193EA31
:100290000C0F03D14B0218BF084608D180EA0100B9
:1002A00000F0004040F0FE4040F40000704740F095
:1002B000FE4040F44000704780F0004002E000BF84
:1002C00081F0004142001FBF5FEA410392EA030F41
:1002D0007FEA226C7FEA236C6AD04FEA1262D2EB8B
:1002E0001363C1BFD218414048404140B8BF5B4290
:1002F000192B88BF704710F0004F40F4000020F029
:100300007F4018BF404211F0004F41F4000121F03E
:100310007F4118BF494292EA030F3FD0A2F1010288
:1003200041FA03FC10EB0C00C3F1200301FA03F1C6
:1003300000F0004302D5494260EB4000B0F5000FE9
:1003400013D3B0F1807F06D340084FEA310102F1A8
:100350000102FE2A51D2B1F1004F40EBC25008BF5A
:1003600020F0010040EA03007047490040EB000024
:10037000013A28BFB0F5000FEDD2B0FA80FCACF125
:10038000080CB2EB0C0200FA0CF0AABF00EBC25052
:1003900052421843BCBFD0401843704792F0000F40
:1003A00081F4000106BF80F400000132013BB5E793
:1003B0004FEA41037FEA226C18BF7FEA236C21D009
:1003C00092EA030F04D092F0000F08BF084670476E
:1003D00090EA010F1CBF0020704712F07F4F04D13C
:1003E000400028BF40F00040704712F100723CBF4F
:1003F00000F50000704700F0004343F0FE4040F479
:10040000000070477FEA226216BF08467FEA236336
:100410000146420206BF5FEA412390EA010F40F421
:10042000800070474FF0000304E000BF10F000436D
:1004300048BF40425FEA000C08BF704743F0964354
:1004400001464FF000001CE050EA010208BF70476F
:100450004FF000030AE000BF50EA010208BF7047F6
:1004600011F0004302D5404261EB41015FEA010C0B
:1004700002BF84460146002043F0B64308BFA3F103
:100480008053A3F50003BCFA8CF2083AA3EBC253E5
:1004900010DB01FA02FC634400FA02FCC2F1200204
:1004A000BCF1004F20FA02F243EB020008BF20F03B
:1004B0000100704702F1200201FA02FCC2F12002A1
:1004C00050EA4C0021FA02F243EB020008BF20EA96
:1004D000DC7070474FF0FF3C06E000BF4FF0010CAE
:1004E00002E000BF4FF0010C4DF804CD4FEA40028E
:1004F0004FEA41037FEA226C18BF7FEA236C11D0D8
:1005000001B052EA530C18BF90EA010F58BFB2EB8A
:10051000030088BFC81738BF6FEAE17018BF40F00A
:10052000010070477FEA226C02D15FEA402C05D1BE
:100530007FEA236CE4D15FEA412CE1D05DF8040B43
:10054000704700BF844608466146FFE70FB5FFF7D6
:10055000C9FF002848BF10F1000F0FBD4DF808ED8E
:10056000FFF7F4FF0CBF012000205DF808FB00BF7F
:100570004DF808EDFFF7EAFF34BF012000205DF8D9
:1005800008FB00BF4DF808EDFFF7E0FF94BF012026
:1005900000205DF808FB00BF4DF808EDFFF7D2FF23
:1005A00094BF012000205DF808FB00BF4DF808ED66
:1005B000FFF7C8FF34BF012000205DF808FB00BF33
:1005C0004FEA4002B2F1FE4F0FD34FF09E03B3EB60
:1005D00012620DD94FEA002343F0004310F0004FA0
:1005E00023FA02F018BF404270474FF000007047F6
:1005F00012F1610F01D1420205D110F0004008BF95
:100600006FF0004070474FF00000704703685A00D9
:100610004CBF43F0004323F000431844704700BF31
:100620002DE9F84339B34F1E044615463E464FF0B8
:10063000000808EB060101EBD171491004EBC10978
:100640004846FFF7E3FF0346C80008308F422044C6
:100650000BD0AB420BD8FFF7D9FF0138A84201F10C
:100660000108E6D34846BDE8F883AB42FAD988458D
:1006700001D04E1EDDE74FF000094846BDE8F88383
:10068000012807D0022807D0044B00280CBF1846C9
:10069000002070470248704702487047710D0008FB
:1006A000750D0008790D000830B5244B044683B061
:1006B0008D1E3BB3284601A9AFF30080E8B1019934
:1006C0002A46FFF7ADFF0146B8B1FFF79FFF4B6821
:1006D000A064012B2ED0002B27DB081DFFF796FF0F
:1006E0000023C4E913030368002B12DBFFF78EFF1E
:1006F00003460020236103B030BD0023092023619D
:1007000003B030BD0E4B0F491846C91AC9100191EC
:10071000D6E7C3F30360FFF7B3FF0028034614BF17
:1007200000200920236103B030BD0123081DC4E966
:100730001303D8E7002305202361DCE70000000055
:100740004CD2000864D30008036810B5DA070446E9
:1007500006D49B0700F1480009D500F05DFC236832
:10076000590709D51A070ED5DB0613D510BD00F0C1
:100770004BFC23685907F5D404F1D00000F054FC79
:1007800023681A07F0D404F5A87000F055FC23681C
:10079000DB06EBD404F5E870BDE8104000F090BC37
:1007A000092070470346006800B11844704700BF35
:1007B000704700BF70B504460E462046316CFFF707
:1007C00073FF054698B9D6F840C03246214601204D
:1007D0002369C4F814C098470828EED0072806D12A
:1007E0002846316CFFF7E4FF301D00F001FC04F0F7
:1007F000BBFC00BF2DE9F0474FF0000AADF5727D5C
:100800000DF10C0E01F1040CC768D0F818800646F3
:100810001446BCE80F00AEE80F00BCE80F00AEE8DD
:100820000F00BCE80F00AEE80F009CE80F0002AD1F
:100830008EE80F00C5F800A021E02B6C4FF4F07299
:10084000294673617AA800F06FFE3146504633693D
:100850007AAA9847889C82466C6433463246494659
:100860000120CDE90058B8470446F0B94FF4F072C2
:1008700028467AA900F058FEBAF1080F1BD130467D
:10088000296CFFF711FF04F109095FFA89FA0446A0
:100890000028D2D0A96B3346696432460120CDE9E5
:1008A00000584AF01001B84700B1092420460DF560
:1008B000727DBDE8F087BAF1070FF6D12046296CAA
:1008C000FFF776FF03A800F093FB00BF406C704772
:1008D000F0B54FF0FF37CB6BF9B00B6401AC01F111
:1008E000040C0E460546BCE80F000FC4BCE80F0020
:1008F0000FC4BCE80F000FC49CE80F0084E80F0091
:10090000009706E06A4629462B699847082804465E
:1009100008D128461099FFF7C7FE0028F2D0092019
:1009200079B0F0BD6846FFF70FFF062CF7D13146CE
:100930002846FFF73FFF00BF10B414468461DC6B0C
:10094000C16000221C64194610BC53E770B54369AE
:10095000C6680B64AEB90A46036904460D460146F3
:1009600002209847072805D008280FD1294620469D
:10097000FFF720FF3046296CFFF71AFF281D00F013
:1009800037FB0122FFF736FF04F0EEFB04F0ECFB2F
:10099000C2682AB1D1F83CC00022C1F840C029E7A2
:1009A00096E700BF704700BF836801460BB1012086
:1009B00018477047012912D009D873B90F2A0CD8EB
:1009C00000EB820042681846009B1A6070470339AA
:1009D000012994BF01200220704702207047084679
:1009E000704700BF002300B585B00A4603A90091F7
:1009F0001946FFF7DFFF039805B05DF804FB00BF61
:100A0000012912D009D873B90F2A0CD8009900EB2C
:100A1000820209681846516070470339012994BF62
:100A2000012002207047022070470846704700BF2F
:100A3000002310B584B003AC039200940A46194613
:100A4000FFF7DEFF04B010BD70B54FF0FF36D36B7B
:100A5000ADF50E7D13640DF15C0E02F1040C05463C
:100A60000C46BCE80F00AEE80F00BCE80F00AEE893
:100A70000F00BCE80F00AEE80F009CE80F008EE806
:100A80000F00169612E00C2116A86A46FFF7D0FF59
:100A9000214616A8A84778B969460820049B16AADB
:100AA00098470528064608D0092805D068462699A3
:100AB000FFF7FAFD0028E6D0092616A8FFF744FE46
:100AC00030460DF50E7D70BD2DE9F04F1E46CC6C05
:100AD00089B054F8043B0D46174600F0030806940D
:100AE000002E79D002228DF81C201A0C8DF81D20C2
:100AF0001B04D2B2059304EB82042B6DB8F1020FF4
:100B000008BFAC6B13F001030CD0384605A900F008
:100B100071FB18B9082009B0BDE8F08F092009B0B1
:100B2000BDE8F08FD4F800A0BAF1000FEDD001932A
:100B300000F008030293022E4AD0B4F800A0B4F8E3
:100B400002900434AA6C0F21384629F0010B93441B
:100B5000FFF748FF834539D82AF001025A44824200
:100B600094BF002001204FEA490303F002030AF07A
:100B7000010A43EA0A03012B49D0022B32D0002B91
:100B8000CCD1B8F1000F02D0002840F0CE80043460
:100B9000D4F800A0BAF1000FCDD1384605A900F075
:100BA00029FB0028BAD1019B002BB3D00F21384676
:100BB000FFF718FF0E2102463846FFF739FF384687
:100BC0000F216A4AFFF734FF0720A8E70020CAE791
:100BD000D4F804900834B5E71B0205930323ADF85D
:100BE0001C308AE7236823F0004BB8F1000F45D191
:100BF00028B1029A002A5CD0BBF1000F74D0002B00
:100C000000DA04340BF1010B04EB8B04C0E7B8F1FC
:100C1000000F19D1B0B163682268991C4FEAD272F3
:100C20003FF47CAF05F158010133049100F091804D
:100C3000201DFFF7B7FD04AB01462846AFF3008047
:100C400000285CD10834A3E70D213846D5F8209060
:100C5000FFF7C8FE8145F5D1AB6A9C42F2D1204630
:100C6000FFF7D4FC0F2102463846FFF7E1FE384675
:100C70002A460021FFF7DCFE072050E70D21384609
:100C8000D5F82090FFF7AEFE814501D02368B6E786
:100C9000AB6A9C42FAD104230022C5E90B23E31876
:100CA000C5F828B06B632368002B5ADB012301933E
:100CB000A8E705F15803CDF80C809146B04604F141
:100CC000040A1E460EE050460496FFF76BFD002214
:100CD000014604AB284609F101090AF1040AAFF301
:100CE0000080E8B9D945EED10D213846FFF77AFEEC
:100CF0000346049A0620C5E909242B620FE78146C2
:100D00000D213846FFF76EFEB9F1020F286225D19A
:100D10002B46049A43F82C2F6B620620AC62FEE649
:100D200046462368DDF80C8069E72046FFF76EFC35
:100D300002460434AC6328461446AFF30080002812
:100D40003FF4ECAE384622460F21FFF771FE072034
:100D5000E5E60D213846FFF745FE2862049B6B62ED
:100D6000DBE70BF1010004EB800079E700000000F5
:100D70000023A9E60123A7E60223A5E62DE9F04317
:100D8000064615461C46C3B0042900F2B880DFE8C9
:100D900001F09C56B62D0300002C40F0B080102AC4
:100DA00000F2AD800368D80600F1F18020AF38462C
:100DB00000F090F9012438460023B16B04FA03F2E5
:100DC0002A4203F1010305D00A4652F804CB11462A
:100DD000C0F800C0042B00F10400EFD13846B16325
:100DE00000F06EF9002043B0BDE8F083032C40F022
:100DF000868094B204EB1243102B4FEA12457ED842
:100E000003681F0700F1CB8020AF384600F036F9A9
:100E1000B26B07EBC50154B10B4601EBC401D01A0C
:100E2000E4001D5843F8045B8B42FAD12244384653
:100E3000B26300F001F9002043B0BDE8F083012C5B
:100E40004FEA124895B256D0052C58D108EB050947
:100E5000B9F1200F53D8B8F10F0F73D9A946002D5F
:100E600040F08480B36B65B320AF4FF0000907EB0F
:100E7000C807043F03EBC50553F8041BAB4247F812
:100E8000041FF9D1B9F1000F0FD06F464146102968
:100E900038BF102107EBC101843903EBC90553F8B2
:100EA000040BAB4241F8040FF9D1012C7FD0B8F10B
:100EB0000F0FB56342D9B9F1000F02D0684600F0B8
:100EC000B3F8002043B0BDE8F083C4B92346012441
:100ED000826B371DA8B204FA03F101421CBF52F81D
:100EE000041B47F823100133102BF4D115F40050E4
:100EF000E7D1B26304E008EB0503102B03D902200D
:100F000043B0BDE8F083B8F10F0FF8D83368DA07C3
:100F100006D5304623F0030340F8483B00F078F84C
:100F200020AF384600F074F8B36B002D9DD11D46FC
:100F300004353846B56300F067F8C2E720A800F032
:100F40006BF8B8E7B9F1100F3FD9A9F11009336870
:100F5000D90708D5304623F0010343F0020340F8D7
:100F6000483B00F05DF8B9F1000F31D033685A0703
:100F70001FD4B8F10F0F24D96F46C8F110053846B9
:100F800000F056F8002DB36B80DD20AF6FE723F043
:100F90001003336006F5E87000F09CF806E723F0D4
:100FA0000803036000F5A87000F068F82CE720AF94
:100FB000BEE7304623F0040340F8D03B00F038F899
:100FC000D7E720A800F02CF8D6E74FF00009BEE7DD
:100FD000B8F10F0F3FF646AF20AF384600F020F8CB
:100FE000B36B002D7FF441AF384600F015F868E789
:100FF00000F1340191E838009C46A6464CF8045DA7
:1010000090E8FF0FE54600BD90EC210B704700BF54
:1010100080EC210B704700BF90EC200B704700BFA5
:1010200080EC200B704700BFD0EC200B704700BF56
:10103000C0EC200B704700BFF0EC0201F0EC021195
:10104000F0EC0221F0EC0231F0EC0241F0EC025144
:10105000F0EC0261F0EC0271F0EC0281F0EC029134
:10106000F0EC02A1F0EC02B1F0EC02C1F0EC02D124
:10107000F0EC02E1F0EC02F1704700BFE0EC02019D
:10108000E0EC0211E0EC0221E0EC0231E0EC024184
:10109000E0EC0251E0EC0261E0EC0271E0EC028174
:1010A000E0EC0291E0EC02A1E0EC02B1E0EC02C164
:1010B000E0EC02D1E0EC02E1E0EC02F1704700BFAD
:1010C000B0FC0181B0FC0191B0FC01A1B0FC01B108
:1010D000704700BFA0FC0181A0FC0191A0FC01A110
:1010E000A0FC01B1704700BFEC4600B52DE90050EF
:1010F0002DE9FF1F4FF000032DE90C0001A9FFF7B8
:10110000E7FBDDF840E012B0704700BFEC4600B5E9
:101110002DE900502DE9FF1F4FF000032DE90C00D1
:1011200001A9FFF713FCDDF840E012B0704700BFE3
:10113000EC4600B52DE900502DE9FF1F4FF00003EC
:101140002DE90C0001A9FFF723FCDDF840E012B007
:10115000704700BFEC4600B52DE900502DE9FF1F98
:101160004FF000032DE90C0001ABFFF7E5FBDDF8C4
:1011700040E012B0704700BFEC4600B52DE90050CA
:101180002DE9FF1F4FF000032DE90C0001AAFFF726
:101190005BFCDDF840E012B0704700BF027A034606
:1011A0007AB9427AA2B14FF0030C4168013A427217
:1011B00008680A1D5A60020283F808C0000E1A600F
:1011C00070470068013A1A7202021A60000E7047F6
:1011D000B0207047002300B585B003A900910C2210
:1011E0001946FFF7E7FB039805B05DF804FB00BF65
:1011F000F0E700BF2DE9F0434FF0000805460E462A
:1012000085B03046FFF7CAFFB028044600F0BA8028
:10121000070620D500F0F003802B4DD0902B36D060
:10122000A02B60D0B02B73D0C02B00F08A8000F0D0
:10123000F803D02B0BD100F0070201320523012166
:10124000284642F40022FFF799FD0028D9D0092052
:1012500005B0BDE8F0838300DBB21F1D00230DF154
:101260000C0919460D222846CDF80090FFF7A2FB85
:10127000039B60064CBFDF1BFF1800230D2228468E
:101280001946CDF800900397FFF7BAFBB9E700F0D5
:101290000D030D2BDBD0002303AF194600F00F0226
:1012A00000972846FFF786FB00230D2228461946A3
:1012B0000097FFF7A5FBA4E73046FFF76FFF240276
:1012C0002043B0F5004FC2D0002304011946284640
:1012D000A2B2FFF753FD0028B9D114F4004F18BF94
:1012E0004FF001088DE7C3434FF47F6203F007031B
:1012F0001A410023010702F47F6248BF42F4804292
:1013000028461946FFF73AFD00283FF47AAF9EE7DA
:10131000B1283CD0B22800F0B080B3284AD000F009
:10132000FC03B42B93D0012300F007021A44284693
:10133000194642F40022FFF721FD00283FF461AF77
:1013400085E7C6284FD0C72861D000F0F803C02B2E
:1013500070D0C8287CD0C9287FF479AF3046FFF719
:101360001DFF0523024601212846140302F00F0247
:1013700004F470240A442243FFF700FD00283FF4E0
:1013800040AF64E7B8F1000F1CD0002060E73046A2
:10139000FFF704FF024600283FF459AF10F0F003B6
:1013A0007FF455AF19462846FFF7E8FC00283FF4C4
:1013B00028AF4CE73046FFF7F1FE012302461946FD
:1013C0002846D2E703AC43460E2241462846009405
:1013D000FFF7F0FA43460F22284641460094FFF7F4
:1013E0000FFB404634E73046FFF7D8FE02460323A2
:1013F000140302F00F0204F4702401322846194647
:101400002243FFF7BBFC00283FF4FBAE1FE730464A
:10141000FFF7C4FE024600283FF419AF10F0F003B6
:101420007FF415AF04212846FFF7A8FC00283FF4FD
:10143000E8AE0CE7032300F00F02013228461946FC
:1014400042F42022FFF79AFC00283FF4DAAEFEE6D1
:101450003046FFF7A3FE0246012102F0F00402F03D
:101460000F0210340A440523284642EA0432FFF7EB
:1014700085FC00283FF4C5AEE9E600230DF10C0918
:101480000D2219462846CDF80090FFF793FA304612
:10149000FFF784FE02064FF002040CD5039B00F018
:1014A0007F00A040184403903046FFF777FE030604
:1014B00004F10704F2D4039B00F07F02A24003F57D
:1014C00001731A440023039228460D221946CDF8D1
:1014D0000090FFF795FA94E60B464FF0030C00B529
:1014E000C26C1846536885B00832029201A91A0EE0
:1014F0001B028DF80CC001938DF80D20FFF77AFECA
:1015000005B05DF804FB00BF08B5FFF771FE806C05
:1015100008BD00BF08B5FFF76BFEC06CC37902338E
:1015200000EB830008BD00BF844641EA000313F0CE
:10153000030349D1403A23D30B6803604B684360EF
:101540008B688360CB68C3600B6903614B6943613F
:101550008B698361CB69C3610B6A03624B6A436227
:101560008B6A8362CB6AC3620B6B03634B6B43630F
:101570008B6B8363CB6BC36340304031403ADBD22B
:1015800030320BD30B6803604B6843608B68836019
:10159000CB68C36010301031103AF3D20C3205D34F
:1015A00051F8043B40F8043B043AF9D2043208D025
:1015B000D2071CBF11F8013B00F8013B01D30B8897
:1015C00003806046704700BF082A13D38B07B1D051
:1015D00010F00303AED0C3F10403D21ADB071CBF23
:1015E00011F8013B00F8013BA4D331F8023B20F88D
:1015F000023B9FE7043AD9D3013A11F8013B00F8C6
:10160000013BF9D20B7803704B7843708B78837071
:101610006046704781F0004102E000BF83F0004364
:1016200030B54FEA41044FEA430594EA050F08BF7D
:1016300090EA020F1FBF54EA000C55EA020C7FEA41
:10164000645C7FEA655C00F0E2804FEA5454D4EBBE
:101650005555B8BF6D420CDD2C4480EA020281EA88
:10166000030382EA000083EA010180EA020281EAC0
:101670000303362D88BF30BD11F0004F4FEA013112
:101680004FF4801C4CEA113102D0404261EB410121
:1016900013F0004F4FEA03334CEA133302D05242A7
:1016A00063EB430394EA050F00F0A780A4F1010463
:1016B000D5F1200E0DDB02FA0EFC22FA05F280189D
:1016C00041F1000103FA0EF2801843FA05F3594183
:1016D0000EE0A5F120050EF1200E012A03FA0EFC02
:1016E00028BF4CF0020C43FA05F3C01851EBE3712C
:1016F00001F0004507D54FF0000EDCF1000C7EEB49
:1017000000006EEB0101B1F5801F1BD3B1F5001F86
:101710000CD349085FEA30004FEA3C0C04F10104A5
:101720004FEA445212F5800F80F09A80BCF1004FCE
:1017300008BF5FEA500C50F1000041EB045141EA50
:10174000050130BD5FEA4C0C404141EB0101013C19
:1017500028BFB1F5801FE9D291F0000F04BF014608
:101760000020B1FA81F308BF2033A3F10B03B3F1DA
:1017700020020CDA0C3208DD02F1140CC2F10C026A
:1017800001FA0CF021FA02F10CE002F11402D8BFC8
:10179000C2F1200C01FA02F120FA0CFCDCBF41EA94
:1017A0000C019040E41AA2BF01EB0451294330BD63
:1017B0006FEA04041F3C1CDA0C340EDC04F1140440
:1017C000C4F1200220FA04F001FA02F340EA030017
:1017D00021FA04F345EA030130BDC4F10C04C4F15D
:1017E000200220FA02F001FA04F340EA030029463D
:1017F00030BD21FA04F0294630BD94F0000F83F487
:10180000801306BF81F480110134013D4EE77FEA69
:10181000645C18BF7FEA655C29D094EA050F08BFB5
:1018200090EA020F05D054EA000C04BF1946104696
:1018300030BD91EA030F1EBF0021002030BD5FEADA
:10184000545C05D14000494128BF41F0004130BD02
:1018500014F580043CBF01F5801130BD01F0004556
:1018600045F0FE4141F470014FF0000030BD7FEAC9
:10187000645C1ABF194610467FEA655C1CBF0B46C4
:10188000024650EA013406BF52EA033591EA030FDB
:1018900041F4002130BD00BF90F0000F04BF0021D3
:1018A000704730B54FF4806404F132044FF0000506
:1018B0004FF0000150E700BF90F0000F04BF00217F
:1018C000704730B54FF4806404F1320410F00045E5
:1018D00048BF40424FF000013EE700BF42004FEAE0
:1018E000E2014FEA31014FEA02701FBF12F07F435D
:1018F00093F07F4F81F06051704732F07F4208BF14
:10190000704793F07F4F04BF41F40021704730B51A
:101910004FF4607401F0004521F000411CE700BF66
:1019200050EA010208BF704730B54FF000050AE0E9
:1019300050EA010208BF704730B511F0004502D5EA
:10194000404261EB41014FF4806404F132045FEAEC
:10195000915C3FF4D8AE4FF003025FEADC0C18BF95
:1019600003325FEADC0C18BF033202EBDC02C2F187
:10197000200300FA03FC20FA02F001FA03FE40EA19
:101980000E0021FA02F11444BDE600BF70B54FF01D
:10199000FF0C4CF4E06C1CEA11541DBF1CEA1355FB
:1019A00094EA0C0F95EA0C0F00F0DEF82C4481EA63
:1019B000030621EA4C5123EA4C5350EA013518BF83
:1019C00052EA033541F4801143F4801338D0A0FB70
:1019D00002CE4FF00005E1FB02E506F00042E0FB1D
:1019E00003E54FF00006E1FB03569CF0000F18BF23
:1019F0004EF0010EA4F1FF04B6F5007F64F54074CB
:101A000004D25FEA4E0E6D4146EB060642EAC6215D
:101A100041EA55514FEAC52040EA5E504FEACE2ECA
:101A2000B4F1FD0C88BFBCF5E06F1ED8BEF1004FCD
:101A300008BF5FEA500E50F1000041EB045170BD49
:101A400006F0004646EA010140EA020081EA03018D
:101A5000B4EB5C04C2BFD4EB0C0541EA045170BD89
:101A600041F480114FF0000E013C00F3AB8014F103
:101A7000360FDEBF002001F0004170BDC4F100044C
:101A8000203C35DA0C341BDC04F11404C4F12005CD
:101A900000FA05F320FA04F001FA05F240EA020028
:101AA00001F0004221F0004110EBD37021FA04F65E
:101AB00042EB06015EEA430E08BF20EAD37070BD18
:101AC000C4F10C04C4F1200500FA04F320FA05F077
:101AD00001FA04F240EA020001F0004110EBD37079
:101AE00041F100015EEA430E08BF20EAD37070BDE9
:101AF000C4F1200500FA05F24EEA020E20FA04F3C2
:101B000001FA05F243EA020321FA04F001F0004170
:101B100021FA04F220EA020000EBD3705EEA430EE1
:101B200008BF20EAD37070BD94F0000F0FD101F010
:101B30000046400041EB010111F4801F08BF013C49
:101B4000F7D041EA060195F0000F18BF704703F087
:101B50000046520043EB030313F4801F08BF013D0E
:101B6000F7D043EA0603704794EA0C0F0CEA1355CA
:101B700018BF95EA0C0F0CD050EA410618BF52EA84
:101B80004306D1D181EA030101F000414FF000008A
:101B900070BD50EA410606BF1046194652EA430698
:101BA00019D094EA0C0F02D150EA013613D195EA0C
:101BB0000C0F05D152EA03361CBF104619460AD154
:101BC00081EA030101F0004141F0FE4141F470015E
:101BD0004FF0000070BD41F0FE4141F4780170BD4E
:101BE00070B54FF0FF0C4CF4E06C1CEA11541DBFB3
:101BF0001CEA135594EA0C0F95EA0C0F00F0A7F8B5
:101C0000A4EB050481EA030E52EA03354FEA0131E1
:101C100000F088804FEA03334FF0805545EA1313F4
:101C200043EA12634FEA022245EA111545EA1065BC
:101C30004FEA00260EF000419D4208BF964244F153
:101C4000FD0404F5407402D25B084FEA3202B61A72
:101C500065EB03055B084FEA32024FF480104FF446
:101C6000002CB6EB020E75EB030E22BFB61A7546BA
:101C700040EA0C005B084FEA3202B6EB020E75EB4D
:101C8000030E22BFB61A754640EA5C005B084FEAB5
:101C90003202B6EB020E75EB030E22BFB61A754682
:101CA00040EA9C005B084FEA3202B6EB020E75EB8D
:101CB000030E22BFB61A754640EADC0055EA060E4E
:101CC00018D04FEA051545EA16754FEA06164FEA91
:101CD000C30343EA52734FEAC2025FEA1C1CC0D13D
:101CE00011F4801F0BD141EA00014FF000004FF0CA
:101CF000004CB6E711F4801F04BF01430020B4F18B
:101D0000FD0C88BFBCF5E06F3FF6AFAEB5EB030C42
:101D100004BFB6EB020C5FEA500C50F1000041EB3F
:101D2000045170BD0EF0004E4EEA113114EB5C040C
:101D3000C2BFD4EB0C0541EA045170BD41F48011DF
:101D40004FF0000E013C90E645EA060E8DE60CEAE7
:101D5000135594EA0C0F08BF95EA0C0F3FF43BAF04
:101D600094EA0C0F0AD150EA01347FF434AF95EABB
:101D70000C0F7FF425AF104619462CE795EA0C0F9F
:101D800006D152EA03353FF4FDAE1046194622E76C
:101D900050EA410618BF52EA43067FF4C5AE50EA46
:101DA00041047FF40DAF52EA43057FF4EBAE12E736
:101DB0004FF0FF3C06E000BF4FF0010C02E000BF17
:101DC0004FF0010C4DF804CD4FEA410C7FEA6C5CFA
:101DD0004FEA430C18BF7FEA6C5C1BD001B050EA9D
:101DE000410C0CBF52EA430C91EA030F02BF90EA88
:101DF000020F0020704710F1000F91EA030F58BF47
:101E0000994208BF90422CBFD8176FEAE37040F0A8
:101E1000010070474FEA410C7FEA6C5C02D150EA46
:101E2000013C07D14FEA430C7FEA6C5CD6D152EA01
:101E3000033CD3D05DF8040B704700BF84461046C6
:101E400062468C461946634600E000BF01B5FFF7C5
:101E5000B7FF002848BF10F1000F01BD4DF808ED95
:101E6000FFF7F4FF0CBF012000205DF808FB00BF66
:101E70004DF808EDFFF7EAFF34BF012000205DF8C0
:101E800008FB00BF4DF808EDFFF7E0FF94BF01200D
:101E900000205DF808FB00BF4DF808EDFFF7CEFF0E
:101EA00094BF012000205DF808FB00BF4DF808ED4D
:101EB000FFF7C4FF34BF012000205DF808FB00BF1E
:101EC0004FEA410C7FEA6C5C02D150EA013C0AD136
:101ED0004FEA430C7FEA6C5C02D152EA033C02D128
:101EE0004FF0000070474FF0010070474FEA410289
:101EF00012F5001215D211D56FF47873B3EB62525C
:101F000012D94FEAC12343F0004343EA505311F082
:101F1000004F23FA02F018BF404270474FF0000014
:101F2000704750EA013005D111F0004008BF6FF052
:101F3000004070474FF00000704700BF53B94AB9E6
:101F4000002908BF00281CBF4FF0FF314FF0FF30C1
:101F500000F076B9ADF1080C6DE904CE00F006F89A
:101F6000DDF804E0DDE9022304B070472DE9F04715
:101F7000089E0D4604468846002B4DD18A42944661
:101F800068D9B2FA82F252B101FA02F3C2F1200129
:101F900020FA01F10CFA02FC41EA030894404FEAEE
:101FA0001C41B8FBF1F71FFA8CFE01FB178807FBF9
:101FB0000EF0230C43EA084398420AD91CEB0303B2
:101FC00007F1FF3580F01E81984240F21B81023FED
:101FD00063441B1AB3FBF1F001FB103300FB0EFE50
:101FE000A4B244EA0344A6450AD91CEB040400F158
:101FF000FF3380F00981A64540F20681644402382F
:102000000021A4EB0E0440EA07401EB10023D44097
:10201000C6E90043BDE8F0878B4208D9002E00F0E6
:10202000EE800021C6E900050846BDE8F087B3FA56
:1020300083F100294AD1AB4202D3824200F2FC80F4
:10204000841A65EB030301209846002EE2D0C6E90E
:102050000048DFE702B9FFDEB2FA82F2002A40F060
:102060009180A1EB0C0001214FEA1C471FFA8CFE66
:10207000B0FBF7F307FB1300250C45EA00450EFB08
:1020800003F0A84208D91CEB050503F1FF3802D282
:10209000A84200F2CE8043462D1AB5FBF7F007FBAD
:1020A00010550EFB00FEA4B244EA0544A64508D92B
:1020B0001CEB040400F1FF3502D2A64500F2B68005
:1020C0002846A4EB0E0440EA03409EE7C1F1200736
:1020D0008B4022FA07FC4CEA030C25FA07FA4FEA78
:1020E0001C49BAFBF9F820FA07F309FB18AA8D403E
:1020F0001FFA8CFE1D4300FA01F308FB0EF02C0CB6
:1021000044EA0A44A04202FA01F20BD91CEB04048F
:1021100008F1FF3A80F08880A04240F28580A8F163
:1021200002086444241AB4FBF9F009FB104400FBD4
:102130000EFEADB245EA0444A64508D91CEB0404E2
:1021400000F1FF356CD2A6456AD90238644440EAF2
:102150000840A0FB0295A4EB0E04AC42C846AE4674
:1021600056D353D0002E69D0B3EB080264EB0E04B3
:1021700022FA01F304FA07F71F43CC40C6E90074C2
:10218000002147E70CFA02FCC2F1200125FA01F315
:102190004FEA1C4720FA01F195400D43B3FBF7F1DC
:1021A00007FB11331FFA8CFE280C40EA034001FBA9
:1021B0000EF3834204FA02F408D91CEB000001F18B
:1021C000FF382FD283422DD902396044C01AB0FBA8
:1021D000F7F307FB1300ADB245EA004503FB0EF031
:1021E000A84208D91CEB050503F1FF3816D2A84216
:1021F00014D9023B6544281A43EA014138E73146C5
:10220000304607E72F46E4E61846F9E64B45A9D2E3
:10221000B9EB020865EB0C0E0138A3E74346EAE789
:10222000284694E74146D1E7D0467BE7644402382C
:1022300047E7023B65442FE7084606E73146E9E6F3
:10224000704700BF08B54E4B1B78402B02D0402B87
:102250004CD008BD4A4A52786F2AF8D1484A927841
:10226000702AF4D1464AD278652AF0D1444A1279CC
:102270006E2AECD1424B5B79202B1CD0202BE8D16D
:102280003F4B9B79732BE4D13D4BDB79702BE0D135
:102290003B4B1B7A652BDCD1394B5B7A652BD8D154
:1022A000374B9B7A642BD4D1364800F0A8FA364BD2
:1022B00001221A70CDE7324A9279612ADED1304A82
:1022C000D2796E2ADAD12E4A127A672AD6D12C4ACE
:1022D000527A6C2AD2D12A4A927A652ACED12948DA
:1022E00000F08DFA294B01221A70B2E7244B5B787B
:1022F000632BAED1224B9B786C2BAAD1204BDB7881
:102300006F2BA6D11E4B1B79732BA2D11C4B5B7973
:10231000652B9ED11A4B9B79202B19D0202B98D15D
:10232000174BDB79732B94D1154B1B7A702B90D103
:10233000134B5B7A652B8CD1114B9B7A652B88D123
:102340000F4BDB7A642B84D10F4B00221A7080E78D
:102350000B4AD279612AE1D1094A127A6E2ADDD17B
:10236000074A527A672AD9D1054A927A6C2AD5D17E
:10237000034AD27A652AD1D1044B00221A7068E749
:10238000600A0020DC0900205D0A00205C0A0020B1
:1023900010B504460021FEF7EBF808B9204610BD41
:1023A00004F10044FAE7000038B51A4B834200D02C
:1023B00038BD194C22461949184600F071FB2378A4
:1023C000402B0DD0FFF73EFF32221349114802F097
:1023D00097FE134B1A68136823F004031360E7E7B2
:1023E000104800F04DFA104800F04AFA0F4800F08B
:1023F00047FA084C0E4A0F49204600F051FB0E4D9B
:102400002946054800F026FB2A680C49204600F0C2
:1024100047FBD7E7F80B0020600A0020A0CD00089A
:10242000700B0020080A0020240A0020400A002027
:10243000A8CD0008A4CD000800000020B8CD0008F9
:10244000434B834200D0704730B587B0414800F01D
:10245000C5F9414B1B7883B13E4B5D693F4B186812
:10246000281AFDF7E3FFFFF793FF3D49FEF78AF8CF
:1024700048B10021374800F067F93A4B1B78002B30
:102480003CD107B030BD334CB4F91830B4F91A2040
:10249000019200932B46B4F91C203349334800F0D5
:1024A000FFFA2E4B1868FDF7C1FF0590EC4604F1CA
:1024B0000C0EBEE80F00ACE80F00DEF80030CCF8E0
:1024C000003094E80E002A4800F0E1F90590EC464F
:1024D00004F10C0EBEE80F00ACE80F00DEF800308F
:1024E000CCF8003094E80E00224800F007FAFEF71E
:1024F00067F80146204600F027F9BEE7154C174B58
:102500001868FDF793FF0590EC4604F10C0EBEE849
:102510000F00ACE80F00DEF80030CCF8003094E893
:102520000E00154800F058FAFEF74AF8014620461A
:1025300000F00AF9B4F91830B4F91A2001920093A6
:102540006369B4F91C200849084800F0A9FA98E723
:10255000E00A0020DC0900205C0A002000000020C6
:10256000000040405D0A0020C4CD0008F80B0020A8
:10257000080A0020240A0020400A002010B5144652
:10258000322392B2024802F0B1FA204610BD00BFD9
:10259000F80B002072B6FEE700B591B028220021AA
:1025A00006A802F013FE0023019302930393049301
:1025B0000593012206924FF4803307930A92022278
:1025C0000D920E934FF4E0130F9306A801F020F93B
:1025D00080B90F23019302210291002303934FF44A
:1025E00080620492059301A801F044FB20B911B068
:1025F0005DF804FBFFF7CEFFFFF7CCFF38B500F026
:10260000B1FDFFF7C9FF00F08FFA00F06BFA00F0A0
:1026100055FC00F063FB00F0C5FC00F097FB1D4B80
:102620001D4A1A6100225A611C4999611C4B1D49BF
:1026300019611D4959619A611C4B1D4919611D4958
:1026400059619A611C4C204601F0A2FC1B4D2846A2
:1026500001F0CCFC3C21284602F054F8042120462D
:1026600001F0E2FF164801F0C1FC164C1649204665
:1026700000F016FA32221549204602F041FD144BB3
:102680001A68136823F004031360124802F0F0FD87
:10269000FEE700BF080A0020CDCC4C3F0AD7A33D7F
:1026A000240A00209A99593FCDCC0C3F400A0020C3
:1026B0009A99993ECDCCCC3D980A0020280B002059
:1026C000E00A0020F80B0020D8CD0008600A0020A6
:1026D000700B0020DCCD0008012800D070474FF6B9
:1026E000FF739942FAD1074B074A1A6001229A8078
:1026F0000222DA80054A9A600422DA60044A1A61EA
:10270000ECE700BFDC090020000C0140980A002023
:10271000280B002010B5044601228188006801F0D2
:102720005BF80022E188206801F056F810BD10B572
:10273000044600228188006801F04EF80122E188F9
:10274000206801F049F810BD38B505460C1E09DCBB
:10275000002C0BDB14BBEB686BB9AB681B68002269
:102760005A6338BD1C48FFF7D5FFF3E764421A48A7
:10277000FFF7DDFFEEE7042B06D0082B09D0AB688E
:102780001B6800221A64ECE7AB681B6800229A639E
:10279000E7E7AB681B680022DA63E2E7EB682BB976
:1027A000AB681B6804F5AF745C63DAE7042B07D0F1
:1027B000082B0BD0AB681B6804F5AF741C64D0E722
:1027C000AB681B6804F5AF749C63CAE7AB681B6811
:1027D00004F5AF74DC63C4E7DC090020B0F918200D
:1027E000428303691B685B6A1BB203839BB292B28C
:1027F0009B1A1BB2838342691344436170470023D1
:102800004361038343838383026912685362704781
:1028100008B54FF6FF710120FFF75EFF08BD00000D
:10282000012800D070474FF6FF739942FAD1074A4A
:102830000023136153619361054A136153619361EE
:10284000044A136153619361ECE700BF080A00205A
:10285000240A0020400A0020F8B505460C4616461A
:102860000F6801463846FDF783FE08B12560F8BDC4
:1028700031463846FDF79AFE0028F8D02660F6E784
:1028800001230370002343608360C360704784B0FA
:10289000F8B5044607A880E80E000C9D2846FDF711
:1028A000C5FD01460F98FDF70BFD07466060A16866
:1028B000FDF708FD0646A060BDF93600281AFDF7B1
:1028C000B5FD0546E06021693846FDF741FC074645
:1028D00061693046FDF73CFC01463846FDF7F2FCE5
:1028E0000646A1692846FDF733FC01463046FDF750
:1028F000E9FCBDE8F84004B07047000084B02DE961
:10290000F041044607A880E80E00237843B1002375
:102910002A4A13602A4A13602A4A1360002323704C
:10292000294A0FA92948FFF797FFDFF89080244F25
:102930003B68C8F80030234D2B683B60BDF9380078
:10294000FDF774FD01460F98FDF7BAFC2860204A98
:1029500029462048FFF780FF2E683D68294630460B
:10296000FDF7AEFC07466060A66029462846FDF7E5
:10297000A9FC01463046FDF7A3FCD8F80010FDF78E
:10298000A1FC0546E06021693846FDF7E1FB0746FA
:1029900061693046FDF7DCFB01463846FDF792FCE5
:1029A0000646A1692846FDF7D3FB01463046FDF7F0
:1029B00089FCBDE8F04104B0704700BF000A002068
:1029C000040A0020FC0900200000C8410000C8C122
:1029D00000401C4600401CC684B0F8B5044607A859
:1029E00080E80E00BDF93800FDF720FD01460F9884
:1029F000FDF766FC07466060A168FDF763FC0646CC
:102A0000A060BDF936300C98C01AFDF70FFD0546E1
:102A1000E06021693846FDF79BFB07466169304657
:102A2000FDF796FB01463846FDF74CFC0646A169CA
:102A30002846FDF78DFB01463046FDF743FCBDE817
:102A4000F84004B0704708B54FF6FF710120FFF75A
:102A5000E7FE08BD30B44FF0000C6546644609E05F
:102A600004EB8404303B03EB440401E02D2B12D033
:102A70000CF1010C10F80C30212B0ED0A3F1300218
:102A8000D2B2092AF2D8002DEAD004EB8404303BFC
:102A9000C3EB4404ECE70125EAE70C6030BC704767
:102AA0000EB470B5C3B0054647AC54F8046B0021B2
:102AB0000291FB2203A802F089FB019422463146D1
:102AC00002A804F049FA02A802F02AFCFF2382B20D
:102AD00002A9284602F00AF843B0BDE8704003B0EE
:102AE0007047000000B583B00E4B5A6942F00102F6
:102AF0005A615B6903F001030193019B00221146B7
:102B0000102000F065FB102000F09AFB0022114617
:102B1000112000F05DFB112000F092FB03B05DF886
:102B200004FB00BF0010024030B589B000240494BB
:102B3000059406940794174B9A6942F020029A6113
:102B40009A6902F020020192019A9A6942F0040205
:102B50009A619A6902F004020292029A9A6942F01A
:102B600008029A619B6903F008030393039B0A4DD3
:102B700022460321284600F02FFE0323049301225E
:102B800005920694079304A9284600F013FD09B0A6
:102B900030BD00BF00100240000C014082B00E4B5F
:102BA0009A6942F001029A619A6902F00102009268
:102BB000009ADA6942F08052DA61DB6903F08053EF
:102BC0000193019B054A536823F0E06343F00073CF
:102BD000536002B0704700BF001002400000014087
:102BE000FEE7FEE7FEE7FEE7FEE770477047704747
:102BF00008B500F0C9FA08BD08B5024800F038FC75
:102C000008BD00BF700B002008B5024800F030FC82
:102C100008BD00BFB40B002008B5024801F01FFA40
:102C200008BD00BFE00A002008B5024802F076F8AF
:102C300008BD00BFF80B00200120704708B502F066
:102C40009BFA162303604FF0FF3008BD08B54FF024
:102C5000FF31FFF7F3FFFEE770B50C46164600257F
:102C600006E0AFF30080214601F8010B01350C4668
:102C7000B542F6DB304670BD4FF0FF3070474FF481
:102C800000534B60002070470120704700207047C0
:102C900010B503460C4A0D490D48006840B10C4878
:102CA00000680344521A934206D8094A136010BDC3
:102CB0000748084C0460F2E702F05EFA0C23036058
:102CC0004FF0FF30F3E700BF005000200004000089
:102CD000940A0020900C00207047000000B587B0D7
:102CE00000230293039304930593009301931648E2
:102CF0004FF08042026040F2CF224260836040F297
:102D0000E732C2600361836101F0A0FA90B94FF429
:102D10008053029302A90C4801F0F8FB68B9002324
:102D2000009301936946084801F052FD40B907B08D
:102D30005DF804FBFFF72EFCE9E7FFF72BFCEEE75D
:102D4000FFF728FCF3E700BFE00A002000B58DB0D4
:102D50002422002103A802F039FA002301930293F0
:102D60001148124A0260436083604FF6FF72C260EE
:102D7000036183610323039301230593099303A94B
:102D800001F0BCFA50B900230193029301A906484F
:102D900001F01EFD28B90DB05DF804FBFFF7FAFB4A
:102DA000F1E7FFF7F7FBF6E7280B002000040040EF
:102DB00000B583B00368144A934205D0B3F1804F45
:102DC0000DD003B05DF804FB104B9A6942F4006229
:102DD0009A619B6903F400630093009BF1E703F59C
:102DE0000433DA6942F00102DA61DB6903F00103BE
:102DF0000193019B002201211C2000F0E9F91C2015
:102E000000F01EFADDE700BF002C01400010024078
:102E100000B587B0002302930393049305930268DF
:102E2000104B9A4202D007B05DF804FB03F5033360
:102E3000DA6942F00202DA61DA6902F00202009213
:102E4000009A9A6942F004029A619B6903F00403B4
:102E50000193019BC023029302A9034800F0AAFB3F
:102E6000E1E700BF000400400008014000B587B062
:102E70000023029303930493059302680D4B9A4237
:102E800002D007B05DF804FB03F564439A6942F091
:102E900004029A619B6903F004030193019B4FF4C0
:102EA0000073029302230393059302A9024800F0E2
:102EB00081FBE6E7002C01400008014010B596B008
:102EC000002412941394149415941094119409945A
:102ED0000A940B940C940D940E940F942022214686
:102EE00001A802F073F92D482D4B0360472343607E
:102EF000846040F2E733C36004614461846101F09F
:102F0000A5F9002838D14FF48053129312A9234811
:102F100001F0FCFA002832D1204801F0C3F9002862
:102F200030D100231093119310A91C4801F050FCDC
:102F300058BB6023099300230A930B930C930D93C2
:102F40000E930F93042209A9144801F065FAF8B909
:102F50000023019302930393049305934FF40052CB
:102F60000692089301A90D4801F068FC98B90B4836
:102F7000FFF77CFF16B010BDFFF70CFBC3E7FFF7B0
:102F800009FBC9E7FFF706FBCBE7FFF703FBD0E739
:102F9000FFF700FBDCE7FFF7FDFAE8E7980A0020FF
:102FA000002C014008B50A480A4B03604FF4FA337D
:102FB000436000238360C36003610C22426183612C
:102FC000C36101F063FD00B908BDFFF7E3FAFBE759
:102FD000F80B00200044004070B586B00023029337
:102FE0000393049305930268324B9A4201D006B0D2
:102FF00070BD044603F5E633DA6942F40032DA6163
:10300000DA6902F400320092009A9A6942F00402EE
:103010009A619B6903F004030193019B04230293CB
:103020000223039303230593234E02A9304600F0A5
:10303000C1FA082302930025039504950DEB0301C3
:10304000304600F0B7FA1D481D4B036045608560AF
:103050008023C3600561456185614FF40053C361FE
:1030600000F026F900BB154BE3635C621548164B74
:10307000036010234360002383608022C2600361E9
:10308000436183614FF40053C36100F011F970B9DB
:103090000C4BA3635C6200221146262000F098F8D6
:1030A000262000F0CDF8A2E7FFF774FADBE7FFF780
:1030B00071FAEDE70044004000080140700B002069
:1030C0006C000240B40B002080000240FFF704FEB9
:1030D0000B480C490C4A002302E0D458C450043376
:1030E000C4188C42F9D3094A094C002301E013604B
:1030F0000432A242FBD302F045F8FFF77FFA704793
:1031000000000020C009002078D30008C00900207A
:103110008C0C0020FEE7000010B504460E4B18781A
:103120004FF47A73B3FBF0F30C4A1068B0FBF3F082
:1031300000F094F868B90F2C01D901200AE00022B0
:1031400021464FF0FF3000F043F8054B1C60002093
:1031500000E0012010BD00BF080000200400002096
:103160000C00002008B5074A136843F010031360F1
:10317000032000F01BF80F20FFF7CEFFFFF70EFD36
:10318000002008BD00200240034A1168034B1B7851
:103190000B441360704700BF400C00200800002063
:1031A000014B1868704700BF400C0020074AD368E5
:1031B00023F4E0631B041B0C000200F4E0600343F3
:1031C00043F0BF6343F40033D360704700ED00E089
:1031D00000B5194BDB68C3F30223C3F1070CBCF144
:1031E000040F28BF4FF0040C03F1040EBEF1060FCC
:1031F00018D9033B4FF0FF3E0EFA0CFC21EA0C01FC
:1032000099400EFA03F322EA0303194300280BDB6B
:103210000901C9B200F1604000F5614080F8001377
:103220005DF804FB0023E5E700F00F000901C9B2D7
:10323000024B1954F4E700BF00ED00E014ED00E08C
:10324000002807DB00F01F02400901239340024AD7
:1032500042F82030704700BF00E100E00138B0F1D3
:10326000807F0BD24FF0E0235861054AF02182F8AD
:1032700023100020986107221A61704701207047CF
:1032800000ED00E030B40124056CAC40C56B6C600F
:10329000046863604368102B05D003689960036875
:1032A000DA6030BC704703689A600368D960F8E759
:1032B00060B310B402460168154B0B441548A0FBDF
:1032C00003031B099B001364134BD363022382F88F
:1032D0002130086820F47F5020F030005368946853
:1032E0002343D468234314692343546923439469D3
:1032F0002343D469234303430B60002090630123DD
:1033000082F8213082F8200010BC704701207047FD
:10331000F8FFFDBFCDCCCCCC0000024038B5044650
:1033200090F82000012832D0012084F8200094F881
:103330002100C0B2012804D0002384F820300220EC
:1033400038BD022084F821000020A0632568286889
:1033500020F0010028602046FFF794FFE36A5BB18C
:103360002268136843F00E0313602268136843F069
:10337000010313600020E3E72268136823F00403CD
:1033800013602268136843F00A031360EDE702201C
:10339000D6E790F82130DBB2022B06D004238363FA
:1033A000002380F82030012070470268136823F062
:1033B0000E0313600268136823F001031360036CAB
:1033C000C16B012202FA03F34B6080F82120002335
:1033D00080F820301846704708B590F82130DBB2ED
:1033E000022B03D004238363012008BD0268136805
:1033F00023F00E0313600268136823F001031360C7
:103400000368194A934214D0143293421FD01432E5
:1034100093421ED0143293421ED0143293421ED0D7
:103420001432934202D04FF0807203E04FF48012C6
:1034300000E001220D4B5A60012380F82130002367
:1034400080F82030436B6BB198470020CDE7102205
:10345000F0E74FF48072EDE74FF48052EAE74FF463
:103460008032E7E70020C0E7080002400000024089
:1034700038B5C36B1A6804682568016C04238B4057
:10348000134235D015F0040F32D0236813F0200F0B
:1034900003D1236823F0040323600368434A934263
:1034A00014D01432934218D01432934217D01432ED
:1034B000934217D01432934217D01432934202D061
:1034C0004FF0806203E04FF4800200E00422384BAA
:1034D0005A60C36A03B1984738BD4022F7E74FF4FA
:1034E0008062F4E74FF48042F1E74FF48022EEE788
:1034F00002238B4013423CD015F0020F39D02368D1
:1035000013F0200F06D1236823F00A032360012360
:1035100080F821300368254A934214D01432934234
:103520001CD0143293421BD0143293421BD014325D
:1035300093421BD01432934202D04FF0007203E04A
:103540004FF4001200E00222194B5A60002380F869
:103550002030836A002BBFD09847BDE72022F3E7D5
:103560004FF40072F0E74FF40052EDE74FF40032F1
:10357000EAE7082303FA01F11142ADD015F0080F74
:10358000AAD0236823F00E032360026CC16B0123D1
:1035900003FA02F24A60836380F82130002380F846
:1035A0002030036B002B97D0984795E70800024026
:1035B0000000024070B582B00024A446A6E0804D11
:1035C000AA4210D007D97F4DAA420CD005F580350C
:1035D000AA4208D013E0A5F58015AA4203D005F54C
:1035E0007025AA4207D18A68002A58D0012A51D0F2
:1035F0004361082403E0A5F58015AA42F3D0BEF18B
:10360000FF0F4ED80646BEF1FF0F4CD84FEA8C0292
:1036100033680F25954023EA050304FA02F21343A9
:1036200033604B6813F0805F6ED0674B9A6942F04D
:1036300001029A619B6903F001030193019B4FEA28
:103640009C02951C614B53F825600CF003039D0010
:103650000F23AB4026EA03065D4B984229D003F5C1
:103660008063984200F08E8003F58063984200F0FA
:103670008B8003F58063984219D004231AE0CC684C
:10368000BDE7CC680434BAE7CC680834B7E7CC6847
:103690000C34B4E703610824B1E70024AFE7042445
:1036A000ADE7061DAFE7ACF108029200B0E70323D7
:1036B00000E00023AB4033430232444D45F8223052
:1036C0004B6813F4801F61D0424A936843EA0E03AB
:1036D00093604B6813F4001F5ED03E4AD36843EA00
:1036E0000E03D3604B6813F4003F5BD0394A536834
:1036F00043EA0E0353604B6813F4803F58D0354AB9
:10370000136843EA0E0313600CF1010C0A6832FAE5
:103710000CF353D0012303FA0CF302EA030E33EA4D
:103720000202F1D14A68122A3FF649AF122A3FF647
:1037300066AF01A555F822F0E73500087F3600088E
:10374000893600089B360008FF350008FF35000861
:10375000FF350008FF350008FF350008FF35000879
:10376000FF350008FF350008FF350008FF35000869
:10377000FF350008FF350008FF35000883360008D4
:103780008F360008012395E7022393E7114A9368D7
:1037900023EA0E0393609CE70E4AD36823EA0E03E4
:1037A000D3609FE70B4A536823EA0E035360A2E7F6
:1037B000084A136823EA0E031360A5E702B070BD40
:1037C00000002210000031100010024000000140F3
:1037D00000080140000401400AB10161704709047A
:1037E0000161704782B0084B1B68084AA2FB0323A3
:1037F0005B0A00FB03F3019300BF019B5A1E019279
:10380000002BF9D102B0704704000020D34D6210A4
:10381000002800F0F18170B582B00446036813F00F
:10382000010F2CD0994B5B6803F00C03042B1DD0C7
:10383000964B5B6803F00C03082B12D06368B3F55A
:10384000803F41D0002B55D103F1804303F5043371
:103850001A6822F480321A601A6822F480221A60F0
:1038600037E08A4B5B6813F4803FE7D0874B1B68D7
:1038700013F4003F03D06368002B00F0BF8123687E
:1038800013F0020F75D0814B5B6813F00C0F5FD003
:103890007E4B5B6803F00C03082B54D02369002B8C
:1038A00000F08A807A4B01221A60FFF779FC054606
:1038B000764B1B6813F0020F75D1FFF771FC401BAC
:1038C0000228F5D903209EE1704A136843F480333F
:1038D0001360636843B3FFF763FC05466B4B1B68DB
:1038E00013F4003FCBD1FFF75BFC401B6428F5D9F4
:1038F000032088E1B3F5A02F09D0644B1A6822F4A5
:1039000080321A601A6822F480221A60E1E703F11B
:103910008043A3F53C331A6842F480221A601A6887
:1039200042F480321A60D4E7FFF73AFC0546574B61
:103930001B6813F4003FA2D0FFF732FC401B642841
:10394000F5D903205FE1514B5B6813F4803FA5D1AB
:103950004E4B1B6813F0020F03D02369012B40F07C
:103960004F814A4A136823F0F803616943EAC103AF
:103970001360236813F0080F33D0A369002B5CD0C9
:10398000434B0122C3F88024FFF70AFC05463F4B56
:103990005B6A13F0020F21D1FFF702FC401B0228E3
:1039A000F5D903202FE1394A136823F0F803616940
:1039B00043EAC1031360DCE7354B00221A60FFF7CE
:1039C000EFFB0546314B1B6813F0020FD1D0FFF718
:1039D000E7FB401B0228F5D9032014E10120FFF783
:1039E00001FF236813F0040F00F09680274BDB697A
:1039F00013F0805F34D1254BDA6942F08052DA61EE
:103A0000DB6903F080530193019B0125214B1B6867
:103A100013F4807F26D0E368012B3DD0002B53D1D7
:103A200003F1804303F504331A6A22F001021A629B
:103A30001A6A22F004021A6233E0154B0022C3F81E
:103A40008024FFF7ADFB0546104B5B6A13F0020FB5
:103A5000C7D0FFF7A5FB401B0228F5D90320D2E011
:103A60000025D3E70B4A136843F480731360FFF714
:103A700097FB0646074B1B6813F4807FCBD1FFF7FB
:103A80008FFB801B6428F5D90320BCE000100240A6
:103A900000004242007000405F4A136A43F0010395
:103AA0001362E36833B3FFF77BFB06465A4B1B6A8E
:103AB00013F0020F2FD1FFF773FB801B41F2883305
:103AC0009842F3D903209EE0052B09D0524B1A6A85
:103AD00022F001021A621A6A22F004021A62E0E776
:103AE0004D4B1A6A42F004021A621A6A42F001024D
:103AF0001A62D6E7FFF754FB0646474B1B6A13F0E2
:103B0000020F08D0FFF74CFB801B41F2883398422C
:103B1000F3D9032077E0E5B9E369002B72D03E4A80
:103B2000526802F00C02082A56D0022B17D03B4BE9
:103B300000221A66FFF734FB0446374B1B6813F06C
:103B4000007F47D0FFF72CFB001B0228F5D903208C
:103B500059E0314AD36923F08053D361DCE72F4B1E
:103B600000221A66FFF71CFB05462B4B1B6813F05F
:103B7000007F06D0FFF714FB401B0228F5D9032075
:103B800041E0236AB3F5803F1AD023494B6823F400
:103B90007413226A606A024313434B601F4B012275
:103BA0001A66FFF7FDFA04461B4B1B6813F0007FF3
:103BB0000ED1FFF7F5FA001B0228F5D9032022E009
:103BC000154A536823F40033A1680B435360DCE7C4
:103BD000002018E0002016E0012B16D00E4B5B6889
:103BE00003F48031226A914211D103F47013626AA6
:103BF00093420ED1002006E001207047012002E030
:103C0000012000E0002002B070BD0120FBE7012090
:103C1000F9E70120F7E700BF001002400000424230
:103C20000F4B5B6803F00C02082A01D00D48704767
:103C3000C3F383420C49885C13F4803F0BD0084BDC
:103C40005B68C3F34043094AD35C064A02FB00F0B9
:103C5000B0FBF3F07047064B03FB00F0704700BF6A
:103C60000010024000127A00F8CD000808CE0008CB
:103C700000093D00002800F0A08070B50D46044604
:103C8000524B1B6803F007038B420BD24F4A136859
:103C900023F007030B431360136803F007038B4201
:103CA00040F08D80236813F0020F17D013F0040F3B
:103CB00004D0474A536843F4E0635360236813F029
:103CC000080F04D0424A536843F460535360404A9B
:103CD000536823F0F003A1680B435360236813F08B
:103CE000010F31D06368012B20D0022B25D0384A38
:103CF000126812F0020F64D035494A6822F00302BC
:103D000013434B60FFF74CFA0646314B5B6803F0F8
:103D10000C036268B3EB820F16D0FFF741FA801BE9
:103D200041F288339842F0D9032045E0284A1268CE
:103D300012F4003FE0D101203EE0254A126812F063
:103D4000007FD9D1012037E0204B1B6803F0070327
:103D5000AB420AD91D4A136823F007032B431360B3
:103D6000136803F00703AB422DD1236813F0040F4F
:103D700006D0174A536823F4E063E1680B435360AD
:103D8000236813F0080F07D0114A536823F46053D7
:103D9000216943EAC1035360FFF742FF0C4B5B68A4
:103DA000C3F303130B4AD35CD8400B4B18600B4B87
:103DB0001868FFF7B1F9002070BD0120704701209D
:103DC000FAE70120F8E70120F6E700BF00200240F3
:103DD00000100240E0CD0008040000200C0000208C
:103DE000014B1868704700BF0400002008B5FFF7BA
:103DF000F7FF044B5B68C3F30223034AD35CD8404C
:103E000008BD00BF00100240F0CD000808B5FFF764
:103E1000E7FF044B5B68C3F3C223034AD35CD8407B
:103E200008BD00BF00100240F0CD000870B4036A66
:103E3000026A22F0010202624668826922F073027D
:103E40000C6844EA020523F002028B6813430D4C10
:103E5000A04209D00B4CA0420DD0466085614A6853
:103E60004263036270BC704723F00803CA681343BF
:103E700023F00403EEE726F440764A6932438E6964
:103E80001643EAE7002C014030B4036A026A22F4C8
:103E9000807202624568C26922F073020C68224394
:103EA00023F400738C6843EA04230F4CA04209D02A
:103EB0000D4CA0420ED04560C2614A68C2630362E5
:103EC00030BC704723F40063CC6843EA042323F436
:103ED0008063EDE725F440554C6945EA04158C698B
:103EE00045EA0415E7E700BF002C014030B4036A3F
:103EF000026A22F4805202624468C26922F4E642F5
:103F00000D6842EA052223F400538D6843EA053325
:103F1000074DA84206D04460C2614A680264036249
:103F200030BC704724F480444D6944EA8514F2E7BC
:103F3000002C014010B4036A046A24F001040462F6
:103F4000846924F0F00C4CEA021223F00A030B43BC
:103F50008261036210BC704710B4036A046A24F0E3
:103F600010040462846924F4704C4CEA023223F099
:103F7000A00343EA01138261036210BC70478368A7
:103F800023F070030B4343F0070383607047000086
:103F900090F83D30DBB2012B22D1022380F83D3076
:103FA0000368114A934210D0B3F1804F0DD0A2F5AF
:103FB0009432934209D002F58062934205D01A6888
:103FC00042F001021A60002070479A6802F007026E
:103FD000062A07D01A6842F001021A6000207047D2
:103FE0000120704700207047002C014090F83D30C0
:103FF000DBB2012B27D1022380F83D300268D36861
:1040000043F00103D3600368114A934210D0B3F127
:10401000804F0DD0A2F59432934209D002F5806210
:10402000934205D01A6842F001021A6000207047DE
:104030009A6802F00702062A07D01A6842F00102C5
:104040001A6000207047012070470020704700BFB1
:10405000002C01407047704770477047704710B59B
:10406000044603681A6912F0020F11D0DA6812F0E0
:10407000020F0DD06FF002021A610123037703686B
:104080009B6913F0030F70D0FFF7E6FF002323773F
:1040900023681A6912F0040F12D0DA6812F0040FC4
:1040A0000ED06FF004021A610223237723689B6904
:1040B00013F4407F5FD02046FFF7CEFF0023237725
:1040C00023681A6912F0080F12D0DA6812F0080F8C
:1040D0000ED06FF008021A61042323772368DB698E
:1040E00013F0030F4ED02046FFF7B6FF00232377CF
:1040F00023681A6912F0100F12D0DA6812F0100F4C
:104100000ED06FF010021A61082323772368DB6951
:1041100013F4407F3DD02046FFF79EFF0023237716
:1041200023681A6912F0010F03D0DA6812F0010F48
:1041300036D123681A6912F0800F03D0DA6812F0C2
:10414000800F34D123681A6912F0400F03D0DA6867
:1041500012F0400F32D123681A6912F0200F03D0F9
:10416000DA6812F0200F30D110BDFFF774FF20463F
:10417000FFF773FF8AE72046FFF76DFF2046FFF742
:104180006CFF9BE72046FFF766FF2046FFF765FFC1
:10419000ACE72046FFF75FFF2046FFF75EFFBDE775
:1041A0006FF001021A612046FEF74AF9C1E76FF08D
:1041B00080021A61204600F06BFBC3E76FF04002FB
:1041C0001A612046FFF74AFFC5E76FF020021A6127
:1041D000204600F05CFBC7E703681B4A90420AD008
:1041E000B0F1804F07D0A2F59432904203D002F58F
:1041F0008062904203D123F070034A681343124A4D
:1042000090420AD0B0F1804F07D0A2F5943290428C
:1042100003D002F58062904203D123F44073CA6850
:10422000134323F080034A69134303608B68C3621E
:104230000B688362044B984202D0012343617047AC
:104240000B690363F9E700BF002C014040B310B5D0
:10425000044690F83D30F3B1022384F83D30214606
:1042600051F8040BFFF7B8FF012384F8463084F8B7
:104270003E3084F83F3084F8403084F8413084F890
:10428000423084F8433084F8443084F8453084F870
:104290003D30002010BD80F83C30FEF789FDDBE7A3
:1042A0000120704740B310B5044690F83D30F3B19B
:1042B000022384F83D30214651F8040BFFF78CFFB0
:1042C000012384F8463084F83E3084F83F3084F887
:1042D000403084F8413084F8423084F8433084F828
:1042E000443084F8453084F83D30002010BD80F81B
:1042F0003C30FFF7AFFEDBE701207047002857D0C6
:1043000070B50D46044690F83D30002B4BD002238B
:1043100084F83D302268936823F4804323F0070338
:104320009360214651F8040BFFF756FF21688A6815
:104330008B690E6A2868104323F4407C2CF0030C30
:10434000AA68AB6942EA032343EA0C0323F47C43E3
:1043500023F0FC03EA69D5F80CC04CEA022C4CEAC5
:10436000030C2A6A13032A6943EA021343EA0C0383
:1043700026F022066A686D6942EA051232438860B7
:1043800021688B6123681A62012384F8463084F81F
:104390003E3084F83F3084F8423084F8433084F86B
:1043A0003D30002070BD80F83C30FEF731FDAEE7B7
:1043B0000120704730B4036A026A22F010020262E0
:1043C0004468826922F4E6420D6842EA052223F03D
:1043D00020038D6843EA05130E4DA84209D00D4D08
:1043E000A8420ED0446082614A688263036230BC96
:1043F000704723F08003CD6843EA051323F04003A0
:10440000EDE724F440644D6944EA85048D6944EA8B
:104410008504E7E7002C014038B590F83C30012BCB
:1044200066D004460D46012380F83C300C2A5AD849
:10443000DFE802F0075959591B5959593059595950
:1044400044000068FFF7F2FC2268936943F0080318
:1044500093612268936923F004039361226893694E
:1044600029690B43936100203EE00068FFF7A2FF3B
:104470002268936943F4006393612268936923F48B
:104480008063936122689369296943EA01239361F8
:10449000002029E00068FFF7F7FC2268D36943F0A9
:1044A0000803D3612268D36923F00403D36122682F
:1044B000D36929690B43D361002015E00068FFF739
:1044C00015FD2268D36943F40063D3612268D36980
:1044D00023F48063D3612268D369296943EA012305
:1044E000D361002000E00120002384F83C3038BD77
:1044F0000220FCE710B4846824F47F4C42EA0322D3
:104500000A4342EA0C02826010BC704790F83C30CB
:10451000012B78D010B50446012380F83C300223EB
:1045200080F83D300268936823F47F4323F07703DB
:1045300093600B68602B4CD029D8402B54D00CD9F9
:10454000502B22D1CA6849680068FFF7F3FC50215C
:104550002068FFF714FD002005E0202B0DD009D9BD
:10456000302B0AD00120012384F83D30002384F849
:104570003C3010BD0BB1102B05D119462068FFF758
:10458000FEFC0020EFE70120EDE70120EBE7B3F5AB
:10459000805F34D0B3F5005F0CD1CB684A6889687E
:1045A0000068FFF7A7FF2268936843F48043936095
:1045B0000020D8E7702B24D1CB684A68896800684E
:1045C000FFF798FF2268936843F077039360002019
:1045D000C9E7CA6849680068FFF7BEFC6021206827
:1045E000FFF7CDFC0020BEE7CA6849680068FFF706
:1045F000A1FC40212068FFF7C2FC0020B3E70020A7
:10460000B1E70120AFE70220704701F01F0101234D
:1046100003FA01FC036A23EA0C030362036A02FA49
:1046200001F10B430362704710B50446084651BBC5
:1046300094F83E30DBB2013B18BF0123002B5BD165
:10464000002839D1022384F83E3001220146206837
:10465000FFF7DBFF23682A4A93423DD02368284AAC
:1046600093423ED0B3F1804F3BD0A2F594329342B7
:1046700037D002F58062934233D01A6842F00102CB
:104680001A60002039E0042908D008290DD094F8D8
:104690004130DBB2013B18BF0123CFE794F83F3034
:1046A000DBB2013B18BF0123C8E794F84030DBB20E
:1046B000013B18BF0123C1E7042805D0082807D013
:1046C000022384F84130C0E7022384F83F30BCE77E
:1046D000022384F84030B8E75A6C42F400425A642E
:1046E000BCE79A6802F00702062A07D01A6842F06F
:1046F00001021A60002000E0012010BD0020FCE74C
:10470000002C014038B5044690F83E00C0B294F841
:104710003F3094F84220D2B294F843C00D46B1B96C
:10472000012849D1012A48D1022384F83E3084F877
:1047300042307DB3042D39D0012200212068FFF7DB
:1047400064FF012204212068FFF75FFF27E0DBB24E
:104750005FFA8CFC042912D0012833D1012B2CD113
:10476000012A31D1BCF1010F30D1022384F83E304F
:1047700084F83F3084F8423084F84330D9E7012B85
:104780001CD1BCF1010F1BD1022384F83F3084F807
:104790004330CEE7012200212068FFF736FF226870
:1047A000136843F001031360002006E00122042196
:1047B0002068FFF72AFFF2E7012038BD0120FCE75F
:1047C0001846FAE70120F8E71846F6E71046F4E73E
:1047D00090F83C30012B2CD010B4012380F83C30F1
:1047E000022380F83D3003685A689C6822F0700C00
:1047F0000A6842EA0C025A6003680F4A93420AD0E0
:10480000B3F1804F07D0A2F59432934203D002F562
:104810008062934204D124F080044A6814439C606F
:10482000012380F83D30002380F83C30184610BC4E
:1048300070470220704700BF002C014090F83C30C8
:10484000012B22D0012380F83C30CB6823F4407345
:104850008A68134323F480634A68134323F4006394
:104860000A68134323F480530A69134323F4005363
:104870004A69134323F48043CA69134302685364AB
:10488000002380F83C30184670470220704770477C
:104890007047026802F10C0353E8003F23F0C003A5
:1048A0000C3242E800310029F3D1202380F8413056
:1048B0007047026802F10C0353E8003F23F4907341
:1048C0000C3242E800310029F3D1026802F11403EE
:1048D00053E8003F23F00103143242E8003100297D
:1048E000F3D1036B012B05D0202380F84230002345
:1048F00003637047026802F10C0353E8003F23F0A2
:1049000010030C3242E800310029F3D1ECE790F8B3
:104910004130DBB2212B01D0022070478368B3F510
:10492000805F17D0036A5A1C02621A7803685A60C3
:10493000C38C9BB2013B9BB2C3844BB90268D36862
:1049400023F08003D3600268D36843F04003D36050
:10495000002070470369002BE4D1036A1B880268BA
:10496000C3F308035360036A02330362E0E7000005
:1049700010B504460268136923F44053C1680B4321
:10498000136183680269134342691A430168CB6863
:1049900023F4B05323F00C031343CB600268536934
:1049A00023F4407381690B4353610268134B9A42AD
:1049B00020D0FFF71BFA024602EB820202EB8202D2
:1049C00063689B00B2FBF3F20D48A0FB023149097A
:1049D000642303FB11231B013233A0FB03235B0978
:1049E00003F0F00202EB011203F00F0321681344FD
:1049F0008B6010BDFFF70AFA0246DDE70038014080
:104A00001F85EB512DE9F84305460F46164699469A
:104A1000DDF820802C68246837EA04030CBF4FF0CF
:104A2000010C4FF0000CB4452DD1B8F1FF3FF1D08F
:104A3000B8F1000F05D0FEF7B3FBA0EB090040452D
:104A4000E8D92A6802F10C0353E8003F23F4D0733D
:104A50000C3242E800310029F3D12A6802F1140334
:104A600053E8003F23F00103143242E800310029EB
:104A7000F3D1202385F8413085F84230002385F8B2
:104A80004030032000E00020BDE8F88360B310B59B
:104A9000044690F8413013B3242384F8413022684F
:104AA000D36823F40053D3602046FFF761FF2268E8
:104AB000136923F4904313612268536923F02A0396
:104AC00053612268D36843F40053D36000206064CC
:104AD000202384F8413084F84230606310BD80F8B0
:104AE0004030FEF779FAD7E7012070472DE9F04111
:104AF00082B01E4690F84130DBB2202B4BD10446E9
:104B00000D46904600294AD00AB9012044E000230E
:104B10004364212380F84130FEF742FB0746A4F8A6
:104B20002480A4F82680A368B3F5805F02D04FF0FC
:104B300000080FE02369FBB14FF000080AE038F8E5
:104B4000023B2268C3F308035360E28C92B2013A3D
:104B500092B2E284E38C9BB28BB100963B4600227A
:104B600080212046FFF74EFFD8B9002DE7D015F879
:104B7000012B23685A60E8E7A8460025EAE700967B
:104B80003B46002240212046FFF73CFF58B9202336
:104B900084F8413000E0022002B0BDE8F08101203D
:104BA000FAE70320F8E70320F6E7704708B5016845
:104BB000CA6822F04002CA60202280F84120FFF734
:104BC000F4FF002008BD70477047704710B5446A75
:104BD00023685A6994F84130DBB2212B10D0236846
:104BE0005A6902F0400294F84230DBB2222B11D015
:104BF000636C43F0100363642046FFF7E6FF10BDCB
:104C000002F08002002AEAD00023E3842046FFF766
:104C100040FEE4E7002AEBD00023E3852046FFF7BF
:104C200048FEE5E708B5406A0023C385C384FFF763
:104C3000CCFF08BD90F84230DBB2222B69D18368EB
:104C4000B3F5805F4FD0826AB3F5805F04D0002B4C
:104C500056D10369002B53D103685B681370836AD4
:104C600001338362C38D9BB2013B9BB2C385002B92
:104C700051D100B583B00268D36823F02003D3601C
:104C80000268D36823F48073D3600268536923F009
:104C900001035361202380F8423000234363036BF8
:104CA000012B33D100230363026802F10C0353E8A4
:104CB000003F23F010030C3242E800310029F3D109
:104CC00003681A6812F0100F06D0002201921A68C9
:104CD00001925B680193019B818DFDF765FB0020CC
:104CE00003B05DF804FB0269002AACD1826A036854
:104CF0005B68C3F308031380836A02338362B1E7FE
:104D000003685B6803F07F031370A8E7FFF75BFF9E
:104D1000E5E70220704700207047000030B583B0FF
:104D2000044602681368D068516913F00F0505D175
:104D300013F0200F02D010F0200F19D12DB111F077
:104D4000010119D110F4907F16D1216B01297DD07A
:104D500013F0800F03D010F0800F40F0188113F093
:104D6000400F03D010F0400F40F0158103B030BD6C
:104D70002046FFF75FFFF9E713F0010F06D010F4AC
:104D8000807F03D0626C42F00102626413F0040F72
:104D900004D019B1626C42F00202626413F0020F97
:104DA00004D019B1626C42F00402626413F0080F7F
:104DB00007D010F0200F00D119B1626C42F0080248
:104DC0006264626C002AD1D013F0200F02D010F080
:104DD000200F29D123685B6903F04003626C12F055
:104DE000080F00D163B32046FFF763FD23685B69BA
:104DF00013F0400F20D0226802F1140353E8003F63
:104E000023F04003143242E800310029F3D1E36B70
:104E100073B1634A5A63E06BFEF7DEFA0028A5D04F
:104E2000E06B436B9847A1E72046FFF703FFD1E70C
:104E30002046FFF7CAFE99E72046FFF7C6FE95E732
:104E40002046FFF7C2FE002363648FE713F0100FC4
:104E50003FF47EAF10F0100F3FF47AAF00230193C0
:104E60001368019353680193019B536913F0400F3A
:104E700051D0E26B13685B689BB2002B3FF476AFB6
:104E8000A18D99427FF672AFE3859369202B37D0CD
:104E9000226802F10C0353E8003F23F480730C32C4
:104EA00042E800310029F3D1226802F1140353E8EB
:104EB000003F23F00103143242E800310029F3D10E
:104EC000226802F1140353E8003F23F04003143238
:104ED00042E800310029F3D1202384F84230002336
:104EE0002363226802F10C0353E8003F23F0100310
:104EF0000C3242E800310029F3D1E06BFEF749FAA9
:104F000002236363A18DE38D9BB2C91A89B2204647
:104F1000FDF74AFA2AE7A18DE38D9BB2C91A89B23F
:104F2000E38D9BB2002B3FF421AF00293FF41EAF6D
:104F3000226802F10C0353E8003F23F490730C3213
:104F400042E800300028F3D1226802F1140353E84C
:104F5000003F23F00103143242E800300028F3D16F
:104F6000202384F8423000232363226802F10C03DB
:104F700053E8003F23F010030C3242E800300028D1
:104F8000F3D1022363632046FDF70EFAEEE62046D6
:104F9000FFF7BDFCEAE62046FFF708FEE6E600BFA5
:104FA000254C000808B5406A01234363036B012BBD
:104FB00002D0FFF709FE08BD818D4908FDF7F4F91D
:104FC000F9E708B50346406A1B681B6813F0200F19
:104FD0002BD10023C385026802F10C0353E8003F84
:104FE00023F480730C3242E800310029F3D10268C7
:104FF00002F1140353E8003F23F00103143242E8A6
:1050000000310029F3D1026802F1140353E8003F94
:1050100023F04003143242E800310029F3D1202369
:1050200080F84230036B012B07D000234363036BEE
:10503000012B0FD0FFF7C7FD08BD026802F10C037A
:1050400053E8003F23F010030C3242E800310029FE
:10505000F3D1EAE7818DFDF7A7F9EDE730B583B02D
:10506000044613468162828500254564222280F829
:105070004220C26B1F489062E26B1F48D062E26B15
:105080001E481063E26B556320680A46011DE06B01
:10509000FEF744F9019523681A6801925B68019351
:1050A000019B23695BB1226802F10C0353E8003FC6
:1050B00043F480730C3242E800310029F3D12268B6
:1050C00002F1140353E8003F43F00103143242E8B5
:1050D00000310029F3D1226802F1140353E8003FA4
:1050E00043F04003143242E800310029F3D100209C
:1050F00003B030BDC34F0008A54F0008CD4B0008DA
:1051000090F84230DBB2202B29D110B582B0044692
:1051100039B312B9012002B010BD0123036300238B
:105120004363FFF79BFF0028F5D1236B012B01D0D0
:105130000120F0E70023019323681A6801925B685D
:105140000193019B226802F10C0353E8003F43F0F6
:1051500010030C3242E800310029F3D1DBE70220D2
:1051600070470120D7E70000062008B500F094F84A
:105170000120FDF76BFD00BF014B1868704700BFB1
:105180001000002070B50D4E0D4D761BB61006D0E8
:10519000002455F8043B01349847A642F9D1094E42
:1051A000094D07F0F1FD761BB61006D0002455F826
:1051B000043B01349847A642F9D170BD64D300087E
:1051C00064D3000874D3000864D30008830730B5A3
:1051D00048D0541E002A3FD00346CAB201E0013C29
:1051E0003AD303F8012B9D07F9D1032C2DD9CDB269
:1051F00045EA05250F2C45EA054536D9A4F11002EC
:1052000022F00F0C03F1200EE6444FEA121C03F1CA
:10521000100242E9045542E9025510327245F8D1B4
:105220000CF1010214F00C0F03EB021204F00F0C4E
:1052300013D0ACF1040323F003030433134442F806
:10524000045B9342FBD10CF003042CB1CAB21C44A2
:1052500003F8012B9C42FBD130BD64461346002C61
:10526000F4D1F9E703461446BFE71A46A446E0E73F
:105270000FB400B5074A83B004AB106853F8042B91
:105280008168019300F07AF803B05DF804EB04B094
:10529000704700BF1000002038B5154B1F281D684F
:1052A00020D8D5F8DC22044662B152F820304BB148
:1052B000012B15D0591C0FD0002542F820509847DB
:1052C000284638BD284600F029F8224601462846DF
:1052D000BDE8384000F00EB8162301202B6038BD21
:1052E000002038BD16234FF0FF302B6038BD00BFC3
:1052F0001000002070B50026074D044608461146F0
:105300002E60FDF79BFC431C00D070BD2B68002B6A
:10531000FBD0236070BD00BF880C0020FDF78CBC63
:1053200020F0030110F00300C0F1000051F8043B2D
:1053300000F1040C4FEACC0C6FF000021CBF22FA03
:105340000CF213434FF0010C4CEA0C2C4CEA0C4CC1
:10535000A3EB0C0222EA030212EACC1204BF51F8BA
:10536000043B0430F4D0C2F1000102EA0102B2FAB7
:1053700082F2C2F11F0200EBD20070472DE9F04F1C
:10538000D5B01C46914607910546099003F058F99F
:1053900002680E9410461792FFF7C2FF16901DB1D7
:1053A000AB6B002B00F01D82079A536EDD0740F1B6
:1053B0002D81B2F90C2091B28F0409D4079B42F4DD
:1053C00000529A8191B21A465B6E23F400535366E1
:1053D0000E0740F1C080079B1B69002B00F0BB80CB
:1053E00001F01A030A2B00F0C48000242BAB2246E4
:1053F00098464D46CDE92944289312940023002471
:10540000CDE914342B78CDE91922CDE91B2218926D
:105410000B92002B00F08F81AA4604E01AF8013F9E
:10542000002B00F0BB80252BF8D1BAEB050640F02D
:10543000B9809AF80030002B00F07D8100234FF0F6
:10544000FF324FF02B0920241F469AF80160089282
:105450000AF1010A8DF883300A930AF1010AA6F1D4
:1054600020035A2B00F2E180DFE813F00503DF0090
:10547000DF000003DF00DF00DF00DE02DF00DF000F
:105480006A006E02DF0055027802DF0073025B00E3
:105490005B005B005B005B005B005B005B005B0034
:1054A000DF00DF00DF00DF00DF00DF00DF006C0176
:1054B000DF00EA01C4016C016C016C01DF00DF0058
:1054C000DF00DF00D002DF00DF002302DF00DF00AB
:1054D000DF00F801DF009202DF00DF008707DF0056
:1054E000DF00DF00DF00DF00DF00DF00DF006C0136
:1054F000DF00EA01C6016C016C016C01B602C60155
:10550000BF01DF00C302DF005A022502A402BF016F
:10551000DF00F80172008407DF00DF006507DF00AD
:1055200072000022A6F130031AF8016B02EB82022E
:1055300003EB4202A6F13003092BF5D90A928EE75C
:105540000E9B53F8042B002A0A920E93C0F2E081BE
:105550009AF8006081E7079D0998294601F018FD37
:10556000002841F04D83A98901F01A030A2B7FF42A
:105570003CAF079AB2F90E30002BFFF636AF536EF0
:10558000D80702D4890541F1488123464A46079944
:10559000099855B0BDE8F04F01F09CBCBAEB050688
:1055A00000F0C9802A9BC8E9005633442A93299BFE
:1055B0000133072B299305DC08F108080B9B3344C2
:1055C0000B9336E70799099828AA05F0ABFD80B937
:1055D0000DF1AC08F2E70799099828AA05F0A2FD99
:1055E000002800F099800D9B1BB11946099802F024
:1055F00003FF079A536ED90740F1E88093895B0651
:1056000001F10A830B9855B0BDE8F08F079BB3F901
:105610000C20900591B23FF5CFAE1D46986D03F07A
:1056200017F8B5F90C2091B2C6E6002E00F0838081
:10563000012300228DF8EC6006933BAD8DF88320AA
:105640000C930D9208920F921392109217F002038E
:1056500002D006990231069117F0840B07D10A99FE
:105660000698A1EB0009B9F1000F00F390832A9C82
:1056700082B10122C8F80420299A013401320DF1C7
:105680008301072A2A942992C8F8001000F3D883CE
:1056900008F108087BB10223C8F80430299B0234C2
:1056A000013321AA072B2A942993C8F8002000F37C
:1056B000D58308F10808BBF1800F00F08882089BB1
:1056C0000C9AA3EB020BBBF1000F00F3CB82FB059E
:1056D00000F11F820C9BC8F800501C44C8F804302D
:1056E000299B2A940133072B299300F3448308F163
:1056F0000808780705D50A9B069A9D1A002D00F325
:10570000B983DDE90A2306998A42ACBF9B185B186E
:105710000B93002C7FF45FAF002329930D9B1BB1EB
:105720000D99099802F068FE55460DF1AC082B78EA
:10573000002B7FF471AE2A9B002B41F010820023D6
:10574000299356E70E9B073323F00702F2E8023451
:10575000CDE91434DDE9143424F0004499461846A8
:105760000E9221464FF0FF32AB4BFCF7A9FB00280D
:1057700040F01885484621464FF0FF32A64BFCF713
:1057800081FB002840F00E85DDE914010022002392
:10579000FCF76EFB002840F065879DF88320002110
:1057A00003209E4D9E4B27F080070D910690472EBB
:1057B000C8BF1D4608910C900F9113911091002ABB
:1057C0003FF444AF069B013306933FE7079B9B8959
:1057D0009A053FF514AF079CA06D02F03BFFA3892B
:1057E0000DE7099802F010FDDEE59AF8006047F039
:1057F000200732E647F01007BA060E9B40F16E8490
:10580000073323F007031A465B6852F8084B9946A2
:105810000E92002BC0F26F84089B013300F0FB82D4
:1058200054EA090327F0800B40F0F682089B002B16
:1058300040F0F7825F46002354AD08930C933DE19E
:10584000012000220E9B069053F8041B3BAD8DF8FF
:1058500083208DF8EC100E930C90F2E64FF00009C7
:105860000E9C089B54F8045B8DF88390002D00F08B
:10587000A1855A1C00F0A5861A464946284603F021
:1058800007FA0D90002801F050810D9B9DF88320B0
:105890005B1B0C9323EAE373CDF820900E940693E0
:1058A000CDF83490CDF83C90CDF84C90CDF84090A8
:1058B00085E747F0100717F0200900F0F2830E9BF0
:1058C000073323F00703D3F8049053F8084B0E93E3
:1058D000002327F4806B00228DF88320089A511C46
:1058E00000F0D48054EA09012BF0800740F0CD800D
:1058F000002A40F00486002B9DD11BF001030C937D
:1059000000F0308430230DF24F158DF84F31D5E083
:105910000A9B5B420A939AF8006047F004079CE5F3
:10592000BD0600F1FD84FC0600F1EE85780600F16D
:10593000B286B90540F1E8850E9B0B9953F8042B0C
:10594000554611700E93F2E69AF800608DF8839038
:1059500083E59AF8006047F080077EE5524612F82A
:10596000016B2A2E01F08D82A6F13003092B92469D
:1059700098BF002201F2E5801AF8016B02EB820267
:1059800003EB4202A6F13003092BF5D9089266E534
:1059900047F0100B1BF0200900F091830E9B07339A
:1059A00023F007031A4652F8084BD3F804900E92DE
:1059B000012390E7302278260E9B8DF8842053F83F
:1059C000044B184A0E934FF00009022347F0020BD4
:1059D0008DF8856018927EE79AF80060682E03BF04
:1059E0009AF8016047F400770AF1010A47F040078E
:1059F00033E59AF800606C2E03BF9AF8016047F017
:105A000020070AF1010A47F0100726E59AF800601E
:105A100047F0080721E500BFFFFFEF7F10CE000829
:105A200014CE000820CE0008099E304602F008FE81
:105A3000436818461B93FFF773FC034630461C93DC
:105A40001E4602F0FDFD83681993002E3FF480ADE1
:105A5000199B002B3FF47CAD199B1B78002B3FF466
:105A600077AD9AF8006047F48067F6E49AF8006032
:105A700047F00107F1E49DF88330002B7FF468AD17
:105A80009AF800608DF88340E7E4BB46012B00F0F4
:105A9000C381022B54AD1FD1189A04F00F03D35CBD
:105AA000240944EA09744FEA191905F8013D54EA3A
:105AB0000903F2D15F4654AB5B1B0C93089A0C9917
:105AC00000238A42B8BF0A460D9306920F939DF8B1
:105AD00083201393109372E604F00703E40844EA6A
